{
  "_format": "hh-sol-artifact-1",
  "contractName": "CampaignEscrow",
  "sourceName": "src/CampaignEscrow.sol",
  "abi": [
    {
      "inputs": [
        {
          "internalType": "address",
          "name": "_paymentToken",
          "type": "address"
        },
        {
          "internalType": "address",
          "name": "_admin",
          "type": "address"
        },
        {
          "internalType": "address",
          "name": "_verifier",
          "type": "address"
        },
        {
          "internalType": "address",
          "name": "_feeCollector",
          "type": "address"
        }
      ],
      "stateMutability": "nonpayable",
      "type": "constructor"
    },
    {
      "inputs": [],
      "name": "AccessControlBadConfirmation",
      "type": "error"
    },
    {
      "inputs": [
        {
          "internalType": "address",
          "name": "account",
          "type": "address"
        },
        {
          "internalType": "bytes32",
          "name": "neededRole",
          "type": "bytes32"
        }
      ],
      "name": "AccessControlUnauthorizedAccount",
      "type": "error"
    },
    {
      "inputs": [],
      "name": "AlreadyClaimed",
      "type": "error"
    },
    {
      "inputs": [],
      "name": "CampaignExpired",
      "type": "error"
    },
    {
      "inputs": [],
      "name": "CampaignNotEnded",
      "type": "error"
    },
    {
      "inputs": [],
      "name": "CampaignNotOpen",
      "type": "error"
    },
    {
      "inputs": [],
      "name": "ECDSAInvalidSignature",
      "type": "error"
    },
    {
      "inputs": [
        {
          "internalType": "uint256",
          "name": "length",
          "type": "uint256"
        }
      ],
      "name": "ECDSAInvalidSignatureLength",
      "type": "error"
    },
    {
      "inputs": [
        {
          "internalType": "bytes32",
          "name": "s",
          "type": "bytes32"
        }
      ],
      "name": "ECDSAInvalidSignatureS",
      "type": "error"
    },
    {
      "inputs": [],
      "name": "EnforcedPause",
      "type": "error"
    },
    {
      "inputs": [],
      "name": "ExpectedPause",
      "type": "error"
    },
    {
      "inputs": [],
      "name": "InsufficientAllowance",
      "type": "error"
    },
    {
      "inputs": [],
      "name": "InvalidDeadline",
      "type": "error"
    },
    {
      "inputs": [],
      "name": "InvalidFeeReserve",
      "type": "error"
    },
    {
      "inputs": [],
      "name": "InvalidShortString",
      "type": "error"
    },
    {
      "inputs": [],
      "name": "InvalidSignature",
      "type": "error"
    },
    {
      "inputs": [],
      "name": "MaxWinnersReached",
      "type": "error"
    },
    {
      "inputs": [],
      "name": "NonceAlreadyUsed",
      "type": "error"
    },
    {
      "inputs": [],
      "name": "ReentrancyGuardReentrantCall",
      "type": "error"
    },
    {
      "inputs": [
        {
          "internalType": "address",
          "name": "token",
          "type": "address"
        }
      ],
      "name": "SafeERC20FailedOperation",
      "type": "error"
    },
    {
      "inputs": [],
      "name": "SignatureExpired",
      "type": "error"
    },
    {
      "inputs": [
        {
          "internalType": "string",
          "name": "str",
          "type": "string"
        }
      ],
      "name": "StringTooLong",
      "type": "error"
    },
    {
      "inputs": [],
      "name": "TransferFailed",
      "type": "error"
    },
    {
      "inputs": [],
      "name": "Unauthorized",
      "type": "error"
    },
    {
      "anonymous": false,
      "inputs": [
        {
          "indexed": true,
          "internalType": "uint256",
          "name": "campaignId",
          "type": "uint256"
        }
      ],
      "name": "CampaignClosed",
      "type": "event"
    },
    {
      "anonymous": false,
      "inputs": [
        {
          "indexed": true,
          "internalType": "uint256",
          "name": "campaignId",
          "type": "uint256"
        },
        {
          "indexed": true,
          "internalType": "address",
          "name": "brand",
          "type": "address"
        },
        {
          "indexed": false,
          "internalType": "uint256",
          "name": "rewardPool",
          "type": "uint256"
        },
        {
          "indexed": false,
          "internalType": "uint256",
          "name": "feeReserve",
          "type": "uint256"
        }
      ],
      "name": "CampaignCreated",
      "type": "event"
    },
    {
      "anonymous": false,
      "inputs": [
        {
          "indexed": true,
          "internalType": "uint256",
          "name": "campaignId",
          "type": "uint256"
        },
        {
          "indexed": true,
          "internalType": "address",
          "name": "brand",
          "type": "address"
        },
        {
          "indexed": false,
          "internalType": "uint256",
          "name": "remainingAmount",
          "type": "uint256"
        }
      ],
      "name": "CampaignRefunded",
      "type": "event"
    },
    {
      "anonymous": false,
      "inputs": [],
      "name": "EIP712DomainChanged",
      "type": "event"
    },
    {
      "anonymous": false,
      "inputs": [
        {
          "indexed": true,
          "internalType": "address",
          "name": "newCollector",
          "type": "address"
        }
      ],
      "name": "FeeCollectorUpdated",
      "type": "event"
    },
    {
      "anonymous": false,
      "inputs": [
        {
          "indexed": false,
          "internalType": "address",
          "name": "account",
          "type": "address"
        }
      ],
      "name": "Paused",
      "type": "event"
    },
    {
      "anonymous": false,
      "inputs": [
        {
          "indexed": true,
          "internalType": "uint256",
          "name": "campaignId",
          "type": "uint256"
        },
        {
          "indexed": true,
          "internalType": "bytes32",
          "name": "submissionId",
          "type": "bytes32"
        },
        {
          "indexed": true,
          "internalType": "address",
          "name": "clipper",
          "type": "address"
        },
        {
          "indexed": false,
          "internalType": "uint256",
          "name": "reward",
          "type": "uint256"
        },
        {
          "indexed": false,
          "internalType": "uint256",
          "name": "fee",
          "type": "uint256"
        }
      ],
      "name": "RewardClaimed",
      "type": "event"
    },
    {
      "anonymous": false,
      "inputs": [
        {
          "indexed": true,
          "internalType": "bytes32",
          "name": "role",
          "type": "bytes32"
        },
        {
          "indexed": true,
          "internalType": "bytes32",
          "name": "previousAdminRole",
          "type": "bytes32"
        },
        {
          "indexed": true,
          "internalType": "bytes32",
          "name": "newAdminRole",
          "type": "bytes32"
        }
      ],
      "name": "RoleAdminChanged",
      "type": "event"
    },
    {
      "anonymous": false,
      "inputs": [
        {
          "indexed": true,
          "internalType": "bytes32",
          "name": "role",
          "type": "bytes32"
        },
        {
          "indexed": true,
          "internalType": "address",
          "name": "account",
          "type": "address"
        },
        {
          "indexed": true,
          "internalType": "address",
          "name": "sender",
          "type": "address"
        }
      ],
      "name": "RoleGranted",
      "type": "event"
    },
    {
      "anonymous": false,
      "inputs": [
        {
          "indexed": true,
          "internalType": "bytes32",
          "name": "role",
          "type": "bytes32"
        },
        {
          "indexed": true,
          "internalType": "address",
          "name": "account",
          "type": "address"
        },
        {
          "indexed": true,
          "internalType": "address",
          "name": "sender",
          "type": "address"
        }
      ],
      "name": "RoleRevoked",
      "type": "event"
    },
    {
      "anonymous": false,
      "inputs": [
        {
          "indexed": false,
          "internalType": "address",
          "name": "account",
          "type": "address"
        }
      ],
      "name": "Unpaused",
      "type": "event"
    },
    {
      "inputs": [],
      "name": "ADMIN_ROLE",
      "outputs": [
        {
          "internalType": "bytes32",
          "name": "",
          "type": "bytes32"
        }
      ],
      "stateMutability": "view",
      "type": "function"
    },
    {
      "inputs": [],
      "name": "DEFAULT_ADMIN_ROLE",
      "outputs": [
        {
          "internalType": "bytes32",
          "name": "",
          "type": "bytes32"
        }
      ],
      "stateMutability": "view",
      "type": "function"
    },
    {
      "inputs": [],
      "name": "VERIFIER_ROLE",
      "outputs": [
        {
          "internalType": "bytes32",
          "name": "",
          "type": "bytes32"
        }
      ],
      "stateMutability": "view",
      "type": "function"
    },
    {
      "inputs": [],
      "name": "campaignCounter",
      "outputs": [
        {
          "internalType": "uint256",
          "name": "",
          "type": "uint256"
        }
      ],
      "stateMutability": "view",
      "type": "function"
    },
    {
      "inputs": [
        {
          "internalType": "uint256",
          "name": "",
          "type": "uint256"
        }
      ],
      "name": "campaigns",
      "outputs": [
        {
          "internalType": "address",
          "name": "brand",
          "type": "address"
        },
        {
          "internalType": "uint128",
          "name": "rewardPool",
          "type": "uint128"
        },
        {
          "internalType": "uint128",
          "name": "feeReserve",
          "type": "uint128"
        },
        {
          "internalType": "uint128",
          "name": "totalPaid",
          "type": "uint128"
        },
        {
          "internalType": "uint64",
          "name": "deadline",
          "type": "uint64"
        },
        {
          "internalType": "uint32",
          "name": "maxWinners",
          "type": "uint32"
        },
        {
          "internalType": "uint32",
          "name": "paidWinners",
          "type": "uint32"
        },
        {
          "internalType": "bytes32",
          "name": "metadataHash",
          "type": "bytes32"
        },
        {
          "internalType": "enum CampaignEscrow.CampaignStatus",
          "name": "status",
          "type": "uint8"
        }
      ],
      "stateMutability": "view",
      "type": "function"
    },
    {
      "inputs": [
        {
          "internalType": "uint256",
          "name": "campaignId",
          "type": "uint256"
        },
        {
          "internalType": "bytes32",
          "name": "submissionId",
          "type": "bytes32"
        },
        {
          "internalType": "uint256",
          "name": "reward",
          "type": "uint256"
        },
        {
          "internalType": "uint256",
          "name": "fee",
          "type": "uint256"
        },
        {
          "internalType": "uint256",
          "name": "nonce",
          "type": "uint256"
        },
        {
          "internalType": "uint256",
          "name": "expiry",
          "type": "uint256"
        },
        {
          "internalType": "bytes",
          "name": "signature",
          "type": "bytes"
        }
      ],
      "name": "claimReward",
      "outputs": [],
      "stateMutability": "nonpayable",
      "type": "function"
    },
    {
      "inputs": [
        {
          "internalType": "uint256",
          "name": "campaignId",
          "type": "uint256"
        }
      ],
      "name": "closeCampaign",
      "outputs": [],
      "stateMutability": "nonpayable",
      "type": "function"
    },
    {
      "inputs": [
        {
          "internalType": "bytes32",
          "name": "metadataHash",
          "type": "bytes32"
        },
        {
          "internalType": "uint256",
          "name": "rewardPool",
          "type": "uint256"
        },
        {
          "internalType": "uint256",
          "name": "feeReserve",
          "type": "uint256"
        },
        {
          "internalType": "uint256",
          "name": "deadline",
          "type": "uint256"
        },
        {
          "internalType": "uint256",
          "name": "maxWinners",
          "type": "uint256"
        }
      ],
      "name": "createCampaign",
      "outputs": [],
      "stateMutability": "nonpayable",
      "type": "function"
    },
    {
      "inputs": [],
      "name": "eip712Domain",
      "outputs": [
        {
          "internalType": "bytes1",
          "name": "fields",
          "type": "bytes1"
        },
        {
          "internalType": "string",
          "name": "name",
          "type": "string"
        },
        {
          "internalType": "string",
          "name": "version",
          "type": "string"
        },
        {
          "internalType": "uint256",
          "name": "chainId",
          "type": "uint256"
        },
        {
          "internalType": "address",
          "name": "verifyingContract",
          "type": "address"
        },
        {
          "internalType": "bytes32",
          "name": "salt",
          "type": "bytes32"
        },
        {
          "internalType": "uint256[]",
          "name": "extensions",
          "type": "uint256[]"
        }
      ],
      "stateMutability": "view",
      "type": "function"
    },
    {
      "inputs": [],
      "name": "feeCollector",
      "outputs": [
        {
          "internalType": "address",
          "name": "",
          "type": "address"
        }
      ],
      "stateMutability": "view",
      "type": "function"
    },
    {
      "inputs": [
        {
          "internalType": "bytes32",
          "name": "role",
          "type": "bytes32"
        }
      ],
      "name": "getRoleAdmin",
      "outputs": [
        {
          "internalType": "bytes32",
          "name": "",
          "type": "bytes32"
        }
      ],
      "stateMutability": "view",
      "type": "function"
    },
    {
      "inputs": [
        {
          "internalType": "bytes32",
          "name": "role",
          "type": "bytes32"
        },
        {
          "internalType": "address",
          "name": "account",
          "type": "address"
        }
      ],
      "name": "grantRole",
      "outputs": [],
      "stateMutability": "nonpayable",
      "type": "function"
    },
    {
      "inputs": [
        {
          "internalType": "uint256",
          "name": "",
          "type": "uint256"
        },
        {
          "internalType": "bytes32",
          "name": "",
          "type": "bytes32"
        }
      ],
      "name": "hasClaimed",
      "outputs": [
        {
          "internalType": "bool",
          "name": "",
          "type": "bool"
        }
      ],
      "stateMutability": "view",
      "type": "function"
    },
    {
      "inputs": [
        {
          "internalType": "bytes32",
          "name": "role",
          "type": "bytes32"
        },
        {
          "internalType": "address",
          "name": "account",
          "type": "address"
        }
      ],
      "name": "hasRole",
      "outputs": [
        {
          "internalType": "bool",
          "name": "",
          "type": "bool"
        }
      ],
      "stateMutability": "view",
      "type": "function"
    },
    {
      "inputs": [],
      "name": "pause",
      "outputs": [],
      "stateMutability": "nonpayable",
      "type": "function"
    },
    {
      "inputs": [],
      "name": "paused",
      "outputs": [
        {
          "internalType": "bool",
          "name": "",
          "type": "bool"
        }
      ],
      "stateMutability": "view",
      "type": "function"
    },
    {
      "inputs": [],
      "name": "paymentToken",
      "outputs": [
        {
          "internalType": "contract IERC20",
          "name": "",
          "type": "address"
        }
      ],
      "stateMutability": "view",
      "type": "function"
    },
    {
      "inputs": [
        {
          "internalType": "uint256",
          "name": "campaignId",
          "type": "uint256"
        }
      ],
      "name": "refundRemaining",
      "outputs": [],
      "stateMutability": "nonpayable",
      "type": "function"
    },
    {
      "inputs": [
        {
          "internalType": "bytes32",
          "name": "role",
          "type": "bytes32"
        },
        {
          "internalType": "address",
          "name": "callerConfirmation",
          "type": "address"
        }
      ],
      "name": "renounceRole",
      "outputs": [],
      "stateMutability": "nonpayable",
      "type": "function"
    },
    {
      "inputs": [
        {
          "internalType": "bytes32",
          "name": "role",
          "type": "bytes32"
        },
        {
          "internalType": "address",
          "name": "account",
          "type": "address"
        }
      ],
      "name": "revokeRole",
      "outputs": [],
      "stateMutability": "nonpayable",
      "type": "function"
    },
    {
      "inputs": [
        {
          "internalType": "address",
          "name": "_feeCollector",
          "type": "address"
        }
      ],
      "name": "setFeeCollector",
      "outputs": [],
      "stateMutability": "nonpayable",
      "type": "function"
    },
    {
      "inputs": [
        {
          "internalType": "bytes4",
          "name": "interfaceId",
          "type": "bytes4"
        }
      ],
      "name": "supportsInterface",
      "outputs": [
        {
          "internalType": "bool",
          "name": "",
          "type": "bool"
        }
      ],
      "stateMutability": "view",
      "type": "function"
    },
    {
      "inputs": [],
      "name": "unpause",
      "outputs": [],
      "stateMutability": "nonpayable",
      "type": "function"
    },
    {
      "inputs": [
        {
          "internalType": "address",
          "name": "",
          "type": "address"
        },
        {
          "internalType": "uint256",
          "name": "",
          "type": "uint256"
        }
      ],
      "name": "usedNonces",
      "outputs": [
        {
          "internalType": "bool",
          "name": "",
          "type": "bool"
        }
      ],
      "stateMutability": "view",
      "type": "function"
    }
  ],
  "bytecode": "0x61018060405234801562000011575f80fd5b5060405162002464380380620024648339810160408190526200003491620003e3565b6040518060400160405280600e81526020016d43616d706169676e457363726f7760901b815250604051806040016040528060018152602001603160f81b81525060016200008e6200008b6200027e60201b60201c565b90565b556200009c826002620002a2565b61012052620000ad816003620002a2565b61014052815160208084019190912060e052815190820120610100524660a0526200013a60e05161010051604080517f8b73c3c69bb8fe3d512ecc4cf759cc79239f7b179b0ffacaa9a75d522b39400f60208201529081019290925260608201524660808201523060a08201525f9060c00160405160208183030381529060405280519060200120905090565b60805250503060c0526001600160a01b0384166200018f5760405162461bcd60e51b815260206004820152600d60248201526c24b73b30b634b2103a37b5b2b760991b60448201526064015b60405180910390fd5b6001600160a01b038116620001e75760405162461bcd60e51b815260206004820152601560248201527f496e76616c69642066656520636f6c6c6563746f720000000000000000000000604482015260640162000186565b6001600160a01b0384811661016052600480546001600160a01b031916918316919091179055620002195f84620002da565b50620002467fa49807205ce4d355092ef5a8a18f56e8913cf4a201fbe287825b095693c2177584620002da565b50620002737f0ce23c3e399818cfee81a7ab0880f714e53d7672b08df0fa62f2843416e1ea0983620002da565b505050505062000619565b7f9b779b17422d0df92223018b32b4d1fa46e071723d6817e2486d003becc55f0090565b5f602083511015620002c157620002b98362000385565b9050620002d4565b81620002ce8482620004db565b5060ff90505b92915050565b5f828152602081815260408083206001600160a01b038516845290915281205460ff166200037d575f838152602081815260408083206001600160a01b03861684529091529020805460ff19166001179055620003343390565b6001600160a01b0316826001600160a01b0316847f2f8788117e7eff1d82e926ec794901d17c78024a50270940304540a733656f0d60405160405180910390a4506001620002d4565b505f620002d4565b5f80829050601f81511115620003b2578260405163305a27a960e01b8152600401620001869190620005a7565b8051620003bf82620005f5565b179392505050565b80516001600160a01b0381168114620003de575f80fd5b919050565b5f805f8060808587031215620003f7575f80fd5b6200040285620003c7565b93506200041260208601620003c7565b92506200042260408601620003c7565b91506200043260608601620003c7565b905092959194509250565b634e487b7160e01b5f52604160045260245ffd5b600181811c908216806200046657607f821691505b6020821081036200048557634e487b7160e01b5f52602260045260245ffd5b50919050565b601f821115620004d657805f5260205f20601f840160051c81016020851015620004b25750805b601f840160051c820191505b81811015620004d3575f8155600101620004be565b50505b505050565b81516001600160401b03811115620004f757620004f76200043d565b6200050f8162000508845462000451565b846200048b565b602080601f83116001811462000545575f84156200052d5750858301515b5f19600386901b1c1916600185901b1785556200059f565b5f85815260208120601f198616915b82811015620005755788860151825594840194600190910190840162000554565b50858210156200059357878501515f19600388901b60f8161c191681555b505060018460011b0185555b505050505050565b5f602080835283518060208501525f5b81811015620005d557858101830151858201604001528201620005b7565b505f604082860101526040601f19601f8301168501019250505092915050565b8051602080830151919081101562000485575f1960209190910360031b1b16919050565b60805160a05160c05160e05161010051610120516101405161016051611dd3620006915f395f81816102780152818161080d01528181610843015281816109f60152610e5c01525f61136d01525f61133b01525f61149b01525f61147301525f6113ce01525f6113f801525f6114220152611dd35ff3fe608060405234801561000f575f80fd5b5060043610610153575f3560e01c80638456cb59116100bf578063b0e1c1e111610079578063b0e1c1e11461038f578063c415b95c146103a2578063d547741f146103b5578063e36da5c0146103c8578063e7705db6146103f5578063fca604d71461041c575f80fd5b80638456cb591461032c57806384b0196e1461033457806391d148541461034f578063980d4ec614610362578063a217fddf14610375578063a42dce801461037c575f80fd5b806336568abe1161011057806336568abe146102b25780633f4ba83a146102c55780635c975abb146102cd5780636a8a6894146102d85780636c32c0031461030557806375b238fc14610318575f80fd5b806301ffc9a7146101575780630fd8b2a81461017f578063141961bc14610194578063248a9ca3146102305780632f2ff15d146102605780633013ce2914610273575b5f80fd5b61016a6101653660046118f0565b610425565b60405190151581526020015b60405180910390f35b61019261018d36600461191e565b61045b565b005b61021b6101a23660046119c1565b60066020525f9081526040902080546001820154600283015460038401546004909401546001600160a01b03909316936001600160801b0380841694600160801b948590048216949184169391820467ffffffffffffffff1692600160c01b830463ffffffff90811693600160e01b9004169160ff1689565b604051610176999897969594939291906119ec565b61025261023e3660046119c1565b5f9081526020819052604090206001015490565b604051908152602001610176565b61019261026e366004611a93565b610928565b61029a7f000000000000000000000000000000000000000000000000000000000000000081565b6040516001600160a01b039091168152602001610176565b6101926102c0366004611a93565b610952565b61019261098a565b60015460ff1661016a565b61016a6102e6366004611abd565b600760209081525f928352604080842090915290825290205460ff1681565b610192610313366004611ae5565b6109ac565b6102525f80516020611d7e83398151915281565b610192610bf6565b61033c610c15565b6040516101769796959493929190611b5f565b61016a61035d366004611a93565b610c57565b6101926103703660046119c1565b610c7f565b6102525f81565b61019261038a366004611bf6565b610ee4565b61019261039d3660046119c1565b610f98565b60045461029a906001600160a01b031681565b6101926103c3366004611a93565b611081565b61016a6103d6366004611c0f565b600860209081525f928352604080842090915290825290205460ff1681565b6102527f0ce23c3e399818cfee81a7ab0880f714e53d7672b08df0fa62f2843416e1ea0981565b61025260055481565b5f6001600160e01b03198216637965db0b60e01b148061045557506301ffc9a760e01b6001600160e01b03198316145b92915050565b6104636110a5565b61046b6110cb565b5f888152600660205260409020600160048083015460ff1690811115610493576104936119d8565b146104b157604051631be5ad6560e31b815260040160405180910390fd5b6002810154600160801b900467ffffffffffffffff164211156104e757604051638320b48360e01b815260040160405180910390fd5b600281015463ffffffff600160c01b82048116600160e01b90920416106105215760405163197951c360e21b815260040160405180910390fd5b5f8981526008602090815260408083208b845290915290205460ff161561055b57604051630c8d9eab60e31b815260040160405180910390fd5b8342111561057c57604051630819bdcd60e01b815260040160405180910390fd5b335f90815260076020908152604080832088845290915290205460ff16156105b657604051623f613760e71b815260040160405180910390fd5b604080517fb3df500f90e4eb54e938740fc1d980911011dedbf6fe2669641181daa818bfea60208201529081018a90526060810189905233608082015260a0810188905260c0810187905260e0810186905261010081018590525f90610120016040516020818303038152906040528051906020012090505f610638826110e6565b90505f61067a8287878080601f0160208091040260200160405190810160405280939291908181526020018383808284375f9201919091525061111292505050565b90506106a67f0ce23c3e399818cfee81a7ab0880f714e53d7672b08df0fa62f2843416e1ea0982610c57565b6106c357604051638baa579f60e01b815260040160405180910390fd5b600160075f336001600160a01b03166001600160a01b031681526020019081526020015f205f8a81526020019081526020015f205f6101000a81548160ff021916908315150217905550600160085f8e81526020019081526020015f205f8d81526020019081526020015f205f6101000a81548160ff021916908315150217905550600184600201601c8282829054906101000a900463ffffffff166107699190611c43565b92506101000a81548163ffffffff021916908363ffffffff16021790555089846002015f8282829054906101000a90046001600160801b03166107ac9190611c67565b82546101009290920a6001600160801b03818102199093169183160217909155600186015460028701549082169116111590506107fc576040516312171d8360e31b815260040160405180910390fd5b600454610836906001600160a01b037f0000000000000000000000000000000000000000000000000000000000000000811691168b61113a565b61086a6001600160a01b037f000000000000000000000000000000000000000000000000000000000000000016338c61113a565b604080518b8152602081018b905233918d918f917fb1a75f103dbae5aa089e0cbaee511f6bcd4892c5aa188a5fdeb40ea562a79e49910160405180910390a4600284015463ffffffff600160c01b82048116600160e01b90920416036109045760048401805460ff191660021790556040518c907f5e6eb33a418de5dbbc17f989f7ae362cdfbb1748c5d603137c767027a354edbc905f90a25b5050505061091e60015f80516020611d5e83398151915255565b5050505050505050565b5f828152602081905260409020600101546109428161116f565b61094c8383611179565b50505050565b6001600160a01b038116331461097b5760405163334bd91960e11b815260040160405180910390fd5b6109858282611208565b505050565b5f80516020611d7e8339815191526109a18161116f565b6109a9611271565b50565b6109b46110a5565b6109bc6110cb565b4282116109dc57604051631da7447960e21b815260040160405180910390fd5b5f6109e78486611c87565b9050610a1e6001600160a01b037f0000000000000000000000000000000000000000000000000000000000000000163330846112c3565b5f60055f8154610a2d90611c9a565b918290555060408051610120810182523381526001600160801b03808a1660208301528816918101919091525f6060820181905267ffffffffffffffff8716608083015263ffffffff861660a083015260c082015260e081018990529091506101008101600190525f82815260066020908152604091829020835181546001600160a01b0319166001600160a01b0390911617815590830151918301516001600160801b03928316600160801b9184168202176001808401919091556060850151600284018054608088015160a089015160c08a0151949098166001600160c01b03199092169190911767ffffffffffffffff909116909402939093176001600160c01b0316600160c01b63ffffffff968716026001600160e01b031617600160e01b959091169490940293909317905560e083015160038201556101008301516004808301805493949293909260ff19909116918490811115610b9357610b936119d8565b021790555050604080518881526020810188905233925083917f91b289a829e71d811b8c69e4a24ba2d40d115d8a236e9a724cb3bb2d43cf7223910160405180910390a35050610bef60015f80516020611d5e83398151915255565b5050505050565b5f80516020611d7e833981519152610c0d8161116f565b6109a96112f9565b5f6060805f805f6060610c26611334565b610c2e611366565b604080515f80825260208201909252600f60f81b9b939a50919850469750309650945092509050565b5f918252602082815260408084206001600160a01b0393909316845291905290205460ff1690565b610c876110cb565b5f81815260066020526040902080546001600160a01b03163314801590610cc25750610cc05f80516020611d7e83398151915233610c57565b155b15610cdf576040516282b42960e81b815260040160405180910390fd5b600360048083015460ff1690811115610cfa57610cfa6119d8565b03610d1857604051631be5ad6560e31b815260040160405180910390fd5b600160048083015460ff1690811115610d3357610d336119d8565b148015610d5557506002810154600160801b900467ffffffffffffffff164211155b15610d735760405163cc76115360e01b815260040160405180910390fd5b60048101805460ff19166003179055600281015460018201545f91610da4916001600160801b039182169116611cb2565b60028301546001600160801b039190911691505f90610dd99063ffffffff600160e01b8204811691600160c01b900416611cd2565b600284015463ffffffff91821692505f91600160c01b9091041615610e395760028401546001850154600160c01b90910463ffffffff1690610e2c908490600160801b90046001600160801b0316611cef565b610e369190611d06565b90505b5f610e448285611c87565b90508015610ec9578454610e85906001600160a01b037f0000000000000000000000000000000000000000000000000000000000000000811691168361113a565b84546040518281526001600160a01b039091169087907f7c0c3709e95c5fe35b43c791adf5cef83416410f63319764e6e5bc218bd6e17f9060200160405180910390a35b50505050506109a960015f80516020611d5e83398151915255565b5f80516020611d7e833981519152610efb8161116f565b6001600160a01b038216610f4e5760405162461bcd60e51b815260206004820152601560248201527424b73b30b634b2103332b29031b7b63632b1ba37b960591b60448201526064015b60405180910390fd5b600480546001600160a01b0319166001600160a01b0384169081179091556040517fe5693914d19c789bdee50a362998c0bc8d035a835f9871da5d51152f0582c34f905f90a25050565b610fa06110cb565b5f81815260066020526040902080546001600160a01b03163314801590610fdb5750610fd95f80516020611d7e83398151915233610c57565b155b15610ff8576040516282b42960e81b815260040160405180910390fd5b600160048083015460ff1690811115611013576110136119d8565b1461103157604051631be5ad6560e31b815260040160405180910390fd5b60048101805460ff1916600217905560405182907f5e6eb33a418de5dbbc17f989f7ae362cdfbb1748c5d603137c767027a354edbc905f90a2506109a960015f80516020611d5e83398151915255565b5f8281526020819052604090206001015461109b8161116f565b61094c8383611208565b60015460ff16156110c95760405163d93c066560e01b815260040160405180910390fd5b565b6110d3611393565b60025f80516020611d5e83398151915255565b5f6104556110f26113c2565b8360405161190160f01b8152600281019290925260228201526042902090565b5f805f8061112086866114eb565b9250925092506111308282611534565b5090949350505050565b61114783838360016115f0565b61098557604051635274afe760e01b81526001600160a01b0384166004820152602401610f45565b6109a98133611652565b5f6111848383610c57565b611201575f838152602081815260408083206001600160a01b03861684529091529020805460ff191660011790556111b93390565b6001600160a01b0316826001600160a01b0316847f2f8788117e7eff1d82e926ec794901d17c78024a50270940304540a733656f0d60405160405180910390a4506001610455565b505f610455565b5f6112138383610c57565b15611201575f838152602081815260408083206001600160a01b0386168085529252808320805460ff1916905551339286917ff6391f5c32d9c69d2a47ea670b442974b53935d1edc7fd64eb21e047a839171b9190a4506001610455565b61127961168b565b6001805460ff191690557f5db9ee0a495bf2e6ff9c91a7834c1ba4fdd244a5e8aa4e537bd38aeae4b073aa335b6040516001600160a01b03909116815260200160405180910390a1565b6112d18484848460016116ae565b61094c57604051635274afe760e01b81526001600160a01b0385166004820152602401610f45565b6113016110a5565b6001805460ff1916811790557f62e78cea01bee320cd4e420270b5ea74000d11b0c9f74754ebdbfc544b05a258336112a6565b60606113617f0000000000000000000000000000000000000000000000000000000000000000600261171b565b905090565b60606113617f0000000000000000000000000000000000000000000000000000000000000000600361171b565b5f80516020611d5e833981519152546002036110c957604051633ee5aeb560e01b815260040160405180910390fd5b5f306001600160a01b037f00000000000000000000000000000000000000000000000000000000000000001614801561141a57507f000000000000000000000000000000000000000000000000000000000000000046145b1561144457507f000000000000000000000000000000000000000000000000000000000000000090565b611361604080517f8b73c3c69bb8fe3d512ecc4cf759cc79239f7b179b0ffacaa9a75d522b39400f60208201527f0000000000000000000000000000000000000000000000000000000000000000918101919091527f000000000000000000000000000000000000000000000000000000000000000060608201524660808201523060a08201525f9060c00160405160208183030381529060405280519060200120905090565b5f805f8351604103611522576020840151604085015160608601515f1a611514888285856117c4565b95509550955050505061152d565b505081515f91506002905b9250925092565b5f826003811115611547576115476119d8565b03611550575050565b6001826003811115611564576115646119d8565b036115825760405163f645eedf60e01b815260040160405180910390fd5b6002826003811115611596576115966119d8565b036115b75760405163fce698f760e01b815260048101829052602401610f45565b60038260038111156115cb576115cb6119d8565b036115ec576040516335e2f38360e21b815260048101829052602401610f45565b5050565b60405163a9059cbb60e01b5f8181526001600160a01b038616600452602485905291602083604481808b5af1925060015f5114831661164657838315161561163a573d5f823e3d81fd5b5f873b113d1516831692505b60405250949350505050565b61165c8282610c57565b6115ec5760405163e2517d3f60e01b81526001600160a01b038216600482015260248101839052604401610f45565b60015460ff166110c957604051638dfc202b60e01b815260040160405180910390fd5b6040516323b872dd60e01b5f8181526001600160a01b038781166004528616602452604485905291602083606481808c5af1925060015f5114831661170a5783831516156116fe573d5f823e3d81fd5b5f883b113d1516831692505b604052505f60605295945050505050565b606060ff83146117355761172e8361188c565b9050610455565b81805461174190611d25565b80601f016020809104026020016040519081016040528092919081815260200182805461176d90611d25565b80156117b85780601f1061178f576101008083540402835291602001916117b8565b820191905f5260205f20905b81548152906001019060200180831161179b57829003601f168201915b50505050509050610455565b5f80807f7fffffffffffffffffffffffffffffff5d576e7357a4501ddfe92f46681b20a08411156117fd57505f91506003905082611882565b604080515f808252602082018084528a905260ff891692820192909252606081018790526080810186905260019060a0016020604051602081039080840390855afa15801561184e573d5f803e3d5ffd5b5050604051601f1901519150506001600160a01b03811661187957505f925060019150829050611882565b92505f91508190505b9450945094915050565b60605f611898836118c9565b6040805160208082528183019092529192505f91906020820181803683375050509182525060208101929092525090565b5f60ff8216601f81111561045557604051632cd44ac360e21b815260040160405180910390fd5b5f60208284031215611900575f80fd5b81356001600160e01b031981168114611917575f80fd5b9392505050565b5f805f805f805f8060e0898b031215611935575f80fd5b883597506020890135965060408901359550606089013594506080890135935060a0890135925060c089013567ffffffffffffffff80821115611976575f80fd5b818b0191508b601f830112611989575f80fd5b813581811115611997575f80fd5b8c60208285010111156119a8575f80fd5b6020830194508093505050509295985092959890939650565b5f602082840312156119d1575f80fd5b5035919050565b634e487b7160e01b5f52602160045260245ffd5b6001600160a01b038a1681526001600160801b03898116602083015288811660408301528716606082015267ffffffffffffffff8616608082015263ffffffff85811660a0830152841660c082015260e08101839052610120810160058310611a6357634e487b7160e01b5f52602160045260245ffd5b826101008301529a9950505050505050505050565b80356001600160a01b0381168114611a8e575f80fd5b919050565b5f8060408385031215611aa4575f80fd5b82359150611ab460208401611a78565b90509250929050565b5f8060408385031215611ace575f80fd5b611ad783611a78565b946020939093013593505050565b5f805f805f60a08688031215611af9575f80fd5b505083359560208501359550604085013594606081013594506080013592509050565b5f81518084525f5b81811015611b4057602081850181015186830182015201611b24565b505f602082860101526020601f19601f83011685010191505092915050565b60ff60f81b881681525f602060e06020840152611b7f60e084018a611b1c565b8381036040850152611b91818a611b1c565b606085018990526001600160a01b038816608086015260a0850187905284810360c0860152855180825260208088019350909101905f5b81811015611be457835183529284019291840191600101611bc8565b50909c9b505050505050505050505050565b5f60208284031215611c06575f80fd5b61191782611a78565b5f8060408385031215611c20575f80fd5b50508035926020909101359150565b634e487b7160e01b5f52601160045260245ffd5b63ffffffff818116838216019080821115611c6057611c60611c2f565b5092915050565b6001600160801b03818116838216019080821115611c6057611c60611c2f565b8082018082111561045557610455611c2f565b5f60018201611cab57611cab611c2f565b5060010190565b6001600160801b03828116828216039080821115611c6057611c60611c2f565b63ffffffff828116828216039080821115611c6057611c60611c2f565b808202811582820484141761045557610455611c2f565b5f82611d2057634e487b7160e01b5f52601260045260245ffd5b500490565b600181811c90821680611d3957607f821691505b602082108103611d5757634e487b7160e01b5f52602260045260245ffd5b5091905056fe9b779b17422d0df92223018b32b4d1fa46e071723d6817e2486d003becc55f00a49807205ce4d355092ef5a8a18f56e8913cf4a201fbe287825b095693c21775a26469706673582212202ff080131bd4a75420dc5e2690828e9360d9d4d916ebe4c9fa554b09ef0df51664736f6c63430008180033",
  "linkReferences": {},
  "deployedLinkReferences": {}
}